:020000040800F2
:10000000000003206D8B00081D1300081F1300085B
:100010002113000823130008251300080000000026
:10002000000000000000000000000000271300088E
:1000300029130008000000002B1300082D130008EE
:10004000BD8B0008BD8B0008BD8B0008BD8B000870
:10005000BD8B0008BD8B0008BD8B0008BD8B000860
:10006000BD8B0008BD8B0008BD8B0008BD8B000850
:10007000BD8B0008BD8B0008BD8B0008BD8B000840
:10008000BD8B0008BD8B0008BD8B0008BD8B000830
:10009000BD8B0008BD8B0008BD8B0008BD8B000820
:1000A000BD8B0008BD8B0008BD8B0008BD8B000810
:1000B000BD8B0008BD8B0008BD8B0008BD8B000800
:1000C000BD8B0008BD8B0008BD8B0008BD8B0008F0
:1000D000BD8B0008BD8B0008BD8B0008BD8B0008E0
:1000E000BD8B0008BD8B0008BD8B0008BD8B0008D0
:1000F000BD8B0008BD8B0008BD8B0008BD8B0008C0
:10010000BD8B0008BD8B0008BD8B0008BD8B0008AF
:10011000BD8B0008BD8B000831130008BD8B0008A3
:10012000BD8B0008BD8B0008BD8B0008BD8B00088F
:10013000BD8B0008BD8B0008BD8B0008BD8B00087F
:10014000BD8B0008BD8B0008BD8B0008BD8B00086F
:10015000BD8B0008BD8B0008BD8B0008BD8B00085F
:10016000BD8B0008BD8B0008BD8B0008BD8B00084F
:10017000BD8B000841130008BD8B00080000000083
:10018000BD8B0008BD8B0008BD8B0008BD8B00082F
:10019000BD8B0008BD8B0008BD8B0008BD8B00081F
:0C01A00051130008BD8B0008BD8B000847
:1001B00010B5054C237833B9044B13B10448AFF3A1
:1001C00000800123237010BD1441002000000000B6
:1001D00080DC010808B5034B1BB103490348AFF3AA
:1001E000008008BD000000001841002080DC0108EC
:1001F00001F0FF01102A2BDB10F0070F08D010F8D8
:10020000013B013A8B422DD010F0070F42B3F6D1DB
:10021000F0B441EA012141EA014122F007047FF0F4
:1002200000070023F0E80256083C85EA010586EA4B
:10023000010685FA47F5A3FA87F586FA47F6A5FA87
:1002400087F68EB9EED1F0BC01F0FF0102F0070293
:1002500032B110F8013B013A83EA010313B1F8D13E
:100260000020704701387047002D06BF354603381F
:10027000073815F0010F07D1013015F4807F02BF58
:10028000013015F4C03F0130F0BC0138704700BFA9
:1002900053B94AB9002908BF00281CBF4FF0FF31ED
:1002A0004FF0FF3000F074B9ADF1080C6DE904CEE9
:1002B00000F006F8DDF804E0DDE9022304B0704741
:1002C0002DE9F047089D04468E46002B4DD18A4209
:1002D000944669D9B2FA82F252B101FA02F3C2F13C
:1002E000200120FA01F10CFA02FC41EA030E9440CD
:1002F0004FEA1C48210CBEFBF8F61FFA8CF708FBEE
:1003000016E341EA034306FB07F199420AD91CEBC5
:10031000030306F1FF3080F01F81994240F21C81F7
:10032000023E63445B1AA4B2B3FBF8F008FB10333F
:1003300044EA034400FB07F7A7420AD91CEB040474
:1003400000F1FF3380F00A81A74240F20781644444
:10035000023840EA0640E41B00261DB1D4400023C9
:10036000C5E900433146BDE8F0878B4209D9002D2D
:1003700000F0EF800026C5E9000130463146BDE8B7
:10038000F087B3FA83F6002E4AD18B4202D3824221
:1003900000F2F980841A61EB030301209E46002DD0
:1003A000E0D0C5E9004EDDE702B9FFDEB2FA82F225
:1003B000002A40F09280A1EB0C014FEA1C471FFA83
:1003C0008CFE0126200CB1FBF7F307FB131140EA6A
:1003D00001410EFB03F0884208D91CEB010103F137
:1003E000FF3802D2884200F2CB804346091AA4B2F9
:1003F000B1FBF7F007FB101144EA01440EFB00FECD
:10040000A64508D91CEB040400F1FF3102D2A64531
:1004100000F2BB800846A4EB0E0440EA03409CE7D0
:10042000C6F12007B34022FA07FC4CEA030C20FA7D
:1004300007F401FA06F31C43F9404FEA1C4900FA9D
:1004400006F3B1FBF9F8200C1FFA8CFE09FB18111A
:1004500040EA014108FB0EF0884202FA06F20BD98D
:100460001CEB010108F1FF3A80F08880884240F2DD
:100470008580A8F102086144091AA4B2B1FBF9F021
:1004800009FB101144EA014100FB0EFE8E4508D91C
:100490001CEB010100F1FF346CD28E456AD90238A1
:1004A000614440EA0840A0FB0294A1EB0E01A14286
:1004B000C846A64656D353D05DB1B3EB080261EBF4
:1004C0000E0101FA07F722FA06F3F1401F43C5E9CE
:1004D000007100263146BDE8F087C2F12003D84004
:1004E0000CFA02FC21FA03F3914001434FEA1C4746
:1004F0001FFA8CFEB3FBF7F007FB10360B0C43EA38
:10050000064300FB0EF69E4204FA02F408D91CEBE7
:10051000030300F1FF382FD29E422DD902386344E5
:100520009B1B89B2B3FBF7F607FB163341EA034185
:1005300006FB0EF38B4208D91CEB010106F1FF38D4
:1005400016D28B4214D9023E6144C91A46EA0046CB
:1005500038E72E46284605E70646E3E61846F8E65D
:100560004B45A9D2B9EB020864EB0C0E0138A3E7A6
:100570004646EAE7204694E74046D1E7D0467BE787
:10058000023B614432E7304609E76444023842E7FF
:10059000704700BF08B50268034B9A4200D008BDFF
:1005A00002F064FFFBE700BF0010004072B6FEE7F8
:1005B00000B595B03022002108A808F071FB002397
:1005C000039304930593069307930193204A116CB8
:1005D00041F080511164126C02F080520192019A34
:1005E00002931C4A136823F4404343F4804313608E
:1005F000136803F440430293029B012308934FF4D2
:100600008033099302230E934FF480020F92042249
:1006100010924822119212930323139308A802F018
:1006200013F980B90F23039302210491002305934A
:100630004FF480520692079303A802F06BFB20B997
:1006400015B05DF804FBFFF7B1FFFFF7AFFF00BF88
:10065000003802400070004008B502F0EDFEFFF7E0
:10066000A7FF00F075F800F045F900F0DFF900F0A1
:100670001BFA00F09BFA00F0D7FB00F035FC00F00D
:1006800083FC00F0EBFC00F027FC00F007FD00F01D
:1006900027FCFAE70120704708B508F0B5FA1623E1
:1006A00003604FF0FF3008BD08B54FF0FF31FFF792
:1006B000F3FFFEE770B50C461646002506E0AFF3E3
:1006C0000080214601F8010B01350C46B542F6DBEE
:1006D000304670BD70B50C461646002504E014F88F
:1006E000010BAFF300800135B542F8DB304670BD39
:1006F0004FF0FF3070474FF400534B6000207047BD
:10070000012070470020704710B503460C4A0D4980
:100710000D48006840B10C4800680344521A9342E7
:1007200006D8094A136010BD0748084C0460F2E778
:1007300008F06AFA0C2303604FF0FF30F3E700BFC4
:10074000000003200004000030410020206500204C
:100750002DE9F0478EB0002409940A940B940C9470
:100760000D9401945D4B1A6B42F004021A631A6BEC
:1007700002F004020192019A02941A6B42F02002E4
:100780001A631A6B02F020020292029A03941A6B07
:1007900042F080021A631A6B02F080020392039AFD
:1007A00004941A6B42F001021A631A6B02F0010200
:1007B0000492049A05941A6B42F002021A631A6BAF
:1007C00002F002020592059A06941A6B42F040026A
:1007D0001A631A6B02F040020692069A07941A6B8B
:1007E00042F010021A631A6B02F010020792079A85
:1007F00008941A6B42F008021A631B6B03F008039B
:100800000893089B364F22461621384602F0B6FD63
:10081000DFF8D88022468021404602F0AFFD314EFD
:1008200022464FF44051304602F0A8FDDFF8C09058
:1008300022464FF4C041484602F0A0FD162309931A
:1008400001250A950B940C9409A9384602F098FCEE
:1008500048F2070309934FF4901ACDF828A00B949F
:1008600009A9404602F08CFC802309930A950B9459
:100870000C9409A9404602F083FC20230993CDF88B
:1008800028A00B9409A9384602F07AFC04230993A6
:100890000A940B9409A9144802F072FC4FF4006307
:1008A00009930A940B9409A9304602F069FC4FF4AD
:1008B000405309930A950B940C9409A9304602F011
:1008C0005FFC4FF4C04309930A950B940C9409A95B
:1008D000484602F055FC0EB0BDE8F08700380240F3
:1008E00000080240000C02400004024000000240E8
:1008F0000018024008B50548054B036002F0DCFD16
:1009000000B908BDFFF752FEFBE700BF34410020ED
:10091000003002400268094B9A4200D0704782B012
:1009200000230193064B1A6B42F480521A631B6B2F
:1009300003F480530193019B02B0704700300240E2
:10094000003802402DE9F04186B000230193029364
:100950000393049305932D4B1B6813B106B0BDE8B8
:10096000F0814FF00108294BC3F800800026009663
:10097000274B9A6B42EA08029A639B6B03EA0803CF
:100980000093009B4FF63F03019302270297032534
:1009900004950C24059401A91E4802F0F1FBCDF842
:1009A0000480029703960495059401A91A4802F061
:1009B000E7FB48F2331301930297039604950594DD
:1009C00001A9164802F0DCFB4FF6837301930297EE
:1009D00003960495059401A9114802F0D1FB4CF24D
:1009E00003730193029703960495059401A90D489A
:1009F00002F0C6FB602301930297039604950594C9
:100A000001A9094802F0BCFBA8E700BF3C41002057
:100A10000038024000140240000802400018024062
:100A200000100240000C02400004024000B589B0F2
:100A30000023019302930393049305930693079372
:100A40001548164A02600122426083600421C16099
:100A500010220261402242614FF4C0728261C36180
:100A60004FF40062026243624FF400538362022338
:100A700001930722029203910492032205920693A6
:100A80000793694402F0B8FD10B909B05DF804FBA2
:100A9000FFF78CFDF9E700BF40410020400100A0B6
:100AA00008B5FFF74FFF08BD08B51348134B0360A7
:100AB000134B436000238360C3604FF480420261A4
:100AC00043618361C361036202F0B6FD50B9002146
:100AD000094802F08FFE40B90021074802F0ACFE41
:100AE00030B908BDFFF762FDF1E7FFF75FFDF3E7FF
:100AF000FFF75CFDF5E700BF74410020005C00409B
:100B0000A08601002DE9F04188B0002303930493EF
:100B10000593069307930268204B9A4202D008B0CF
:100B2000BDE8F081002500951D4C236B43F00403C4
:100B30002363236B03F004030093009B0195236B55
:100B400043F001032363236B03F001030193019B33
:100B50004FF4007303934FF01208CDF81080012773
:100B600005970426079603A90E4802F009FB4FF4E7
:100B700080730393CDF8108005970695079603A917
:100B8000094802F0FDFA0295236C43F40003236444
:100B9000236C03F400030293029BC0E7005C004057
:100BA00000380240000802400000024000B58FB04B
:100BB0003422002101A808F073F82848284B03606C
:100BC000002343608360C360036109224261012204
:100BD00082611D22C2610322026240F20D12426252
:100BE00040F24312826240F21712C26240F2471290
:100BF000026380F8343080F8353080F8363002F007
:100C000015FF20BB00220192F021029103924FF4C4
:100C1000A073049302200590FF20069007924FF4E2
:100C2000C0600890072009904FF050400A900B9147
:100C30000C938DF834208DF835208DF8362001A9DD
:100C4000064802F0DDFF28B90FB05DF804FBFFF79E
:100C5000ADFCD7E7FFF7AAFCF6E700BFC8410020CC
:100C6000006801402DE9F04198B00446002113913D
:100C70001491159116911791302207A808F010F8D9
:100C80002268624B9A4202D018B0BDE8F081082376
:100C9000079332230B9302230D9307A802F02EF93A
:100CA000002840F0B08000240094594B5A6C42F068
:100CB00080625A645A6C02F080620092009A019439
:100CC0001A6B42F020021A631A6B02F020020192A2
:100CD000019A02941A6B42F001021A631A6B02F035
:100CE00001020292029A03941A6B42F002021A6302
:100CF0001A6B02F002020392039A04941A6B42F0F8
:100D000040021A631A6B02F040020492049A05949E
:100D10001A6B42F004021A631A6B02F00402059285
:100D2000059A06941A6B42F008021A631B6B03F0D3
:100D300008030693069B4FF48063139302251495D2
:100D4000159416940E26179613A9324802F018FA35
:100D500041F658031393149515941694179613A9F6
:100D60002D4802F00DFA032313931495159416944D
:100D70004FF00908CDF85C80284F13A9384602F0DF
:100D8000FFF94FF470631393149515941694179606
:100D900013A9384602F0F4F94FF40C631393149539
:100DA00015941694179607F5A05713A9384602F024
:100DB000E7F94FF4986313931495159416941796C6
:100DC00013A9174802F0DCF94823139314951594DE
:100DD0001694179613A9134802F0D2F94FF4A053B2
:100DE0001393149515941694CDF85C8013A9384686
:100DF00002F0C6F922460521582002F0D7FA582001
:100E000002F00CFB40E7FFF7D1FB4CE70068014024
:100E1000003802400014024000000240000402407A
:100E200000080240000C024008B50E480E4B03605B
:100E30004FF48273436000238360C36003614361A6
:100E40004FF4007282611822C261036243628362BE
:100E50000A23C36202F008FF00B908BDFFF7A6FB32
:100E6000FBE700BF704200200050014000B589B090
:100E70000023039304930593069307930268144B8E
:100E80009A4202D009B05DF804FB0021019103F5FC
:100E900068435A6C42F480125A645A6C02F480120D
:100EA0000192019A02911A6B42F020021A631B6BA5
:100EB00003F020030293029B4FF460730393022319
:100EC00004930523079303A9024802F059F9D9E7CF
:100ED000005001400014024008B507F069F908BD50
:100EE00008B507F08FF908BD00B587B0002302935D
:100EF000039304930593009301931548154A0260E8
:100F0000436083604FF6FF72C26003614361836197
:100F100003F0A2F890B94FF48053029302A90C4851
:100F200003F0D3F868B90023009301936946084899
:100F300003F04AF940B907B05DF804FBFFF736FB50
:100F4000E9E7FFF733FBEEE7FFF730FBF3E700BF1E
:100F5000C8420020000001400268094B9A4200D0BC
:100F6000704782B000230193064B5A6C42F0010295
:100F70005A645B6C03F001030193019B02B070475C
:100F8000000001400038024008B50A480A4B0360DF
:100F90004FF4E133436000238360C36003610C229C
:100FA00042618361C36103F0DFF900B908BDFFF757
:100FB000FDFAFBE7104300200010014000B589B0A6
:100FC000002303930493059306930793026803F1A8
:100FD000804303F588339A4202D009B05DF804FBE0
:100FE0000021019103F594335A6C42F010025A64C7
:100FF0005A6C02F010020192019A02911A6B42F0AF
:1010000001021A631B6B03F001030293029B4FF46E
:10101000C0630393022304930323069307230793D8
:1010200003A9024802F0ACF8D7E700BF0000024075
:1010300004290CD0052902D0022904D07047064BA0
:1010400003221A707047044B02221A707047024B39
:1010500001221A70F2E700BF5443002008B50022B5
:101060000B490C4803F02FFB48B90B49094803F022
:1010700049FB38B9074803F08AFB30B908BDFFF7D0
:1010800095FAF2E7FFF792FAF4E7FFF78FFAF5E740
:1010900031100008584300201000002008B5024815
:1010A00003F07FFB08BD00BF5843002070B588B037
:1010B00000230393049305930693079302681D4B43
:1010C0009A4201D008B070BD002401941A4D2B6BD8
:1010D00043F002032B632B6B03F002030193019B8C
:1010E0004FF450430393022304930C230793134EAE
:1010F0000DEB0301304602F043F84FF40053039325
:101100000494059403A9304602F03AF802942B6B3C
:1011100043F000532B632B6B03F000530293029BAD
:10112000224621464D2002F041F94D2002F076F989
:10113000C8E700BF0000044000380240000402403D
:1011400008B5D0F8000303F06AFC08BD08B5D0F874
:10115000000303F075FC08BD08B5D0F8000303F0E8
:1011600079FC08BD704708B5D0F8000303F060FCB7
:1011700008BD08B5D0F8000303F05EFC08BD000010
:1011800090F8CC330BB10020704710B504461148DD
:10119000C0F80043C4F8D0030F4B03600C238360F6
:1011A0000123C3600023036102228261C3610362E1
:1011B000C362436300F0D6F940B9064800F026FF49
:1011C0000146204603F028FC002010BDFFF7EEF991
:1011D000F3E700BF304700200000044008B5D0F816
:1011E000D00300F018FF012804D0022804D000B179
:1011F000012008BD0120FCE70220FAE708B5D0F87D
:10120000D00300F0FEFE08BD08B5D0F8D00300F012
:10121000F2FE08BD08B590F8CC3323B1C82002F027
:1012200037F9002008BD084600F06CF8F6E7D0F862
:10123000D0332C2000FB013090F83B0030B12C2043
:1012400000FB013383F85420002070472C2000FB62
:10125000013383F85520F7E708B502F019F908BD06
:10126000022805D8DFE800F00504020001207047DD
:101270000220704708B5D0F8D00300F090FEFFF7C9
:10128000EFFF08BD08B5D0F8D00300F09DFEFFF7D2
:10129000E7FF08BD08B5D0F8D00300F0A7FEFFF7C0
:1012A000DFFF08BD10B584B0D0F8D003BDF82040F2
:1012B00002949DF81C4001949DF81840009400F0A1
:1012C000F8F8FFF7CDFF04B010BD08B5D0F8D00393
:1012D00000F036F9FFF7C4FF08BD10B584B0D0F8B0
:1012E000D0039DF824400394BDF820400294079C4D
:1012F00001949DF81840009400F086F9FFF7B0FFC4
:1013000004B010BD08B528B901221021024802F02E
:1013100035F808BD0022F8E700080240FEE7FEE7C6
:10132000FEE7FEE7FEE77047704770477047000032
:1013300008B5024802F06EFD08BD00BF344A002027
:1013400008B5024800F081FD08BD00BF304700200D
:1013500008B5024802F0E7FB08BD00BFC841002005
:1013600082B0002100910B4B5A6C42F480425A64C7
:101370005A6C02F480420092009A01911A6C42F079
:1013800080521A641B6C03F080530193019B02B0DE
:10139000704700BF0038024010B588B001460022F7
:1013A000362002F003F8362002F038F800240194C9
:1013B000144B1A6C42F010021A641B6C03F01003F9
:1013C0000193019B02A903A801F07AFD01F058FDE9
:1013D00043000D48A0FB03239B0C013B0B480C4A28
:1013E000026040F2E732C26043600461846002F050
:1013F00033FE10B1012008B010BD044802F0C2FC59
:10140000F9E700BF0038024083DE1B43344A002066
:1014100000100040F8B50668346A04F00F07C4F302
:101420004343C4F30A14022B00D0F8BD0546002C38
:10143000FBD02C2303FB0703596C0029F5D02C2388
:1014400003FB07031A6D2244DB6C9A4206D92C2059
:1014500000FB0755042385F86030E6E72246304656
:1014600000F09BFE2C2303FB07535A6C22445A6462
:101470001A6D22441A6506EB4716D6F81025C2F3FA
:10148000C942B3F84030A342CFD1002ACDD0D6F81C
:10149000003523F0804343F00043C6F800352C2389
:1014A00003FB075595F8543083F0010385F8543059
:1014B000BBE7F0B585B004469DF828509DF82C6038
:1014C000BDF8307090F8F802012837D0012084F878
:1014D000F8022C2000FB01404FF0000C80F83DC0CA
:1014E00080F83830A0F8407080F8391080F83F60FC
:1014F00002F07F0C80F83AC012F0800F16D12C2039
:1015000000FB01404FF0000C80F83BC02C2000FB9A
:10151000014080F83C50029701960095206800F049
:1015200086FF002384F8F83205B0F0BD2C2000FBC4
:1015300001404FF0010C80F83BC0E7E70220F3E7E1
:1015400090F8F832012B0BD010B50446012380F837
:10155000F832006800F0FFFF002084F8F80210BDA8
:101560000220704700284DD070B58AB00446056847
:1015700090F8F932002B40D0032384F8F932EB6B5A
:1015800013F4807F01D100232361206800F0B9FDAE
:10159000A4465CF8106BEE46BCE80F00AEE80F0006
:1015A000BCE80F00AEE80F009CE803008EE80300E3
:1015B000251D95E80E00304600F058FD01212068F9
:1015C00000F01DFEA4465CF8106BEE46BCE80F0070
:1015D000AEE80F00BCE80F00AEE80F009CE8030087
:1015E0008EE8030095E80E00304600F039FE012336
:1015F00084F8F93200200AB070BD80F8F832FFF7A5
:1016000055FDB9E70120704770B59DF81050BDF841
:1016100018604FF02C0C0CFB010C8CF83B208CF864
:101620003F307DB964464FF0030C84F842C09DF80A
:101630001CC084F83DC0032B00F28180DFE803F07A
:101640000A7929512C2404FB01044FF0020C84F880
:1016500042C0F0E7012D72D1002A70D12EB92C239F
:1016600003FB0103012283F855202C2303FB010314
:1016700093F8553033B92C2303FB0103002283F880
:1016800042205CE02C2303FB0103022283F842206A
:1016900055E092B92C2303FB010393F855302BB985
:1016A0002C2303FB010383F8422048E02C2303FB97
:1016B0000103022283F8422041E02C2303FB0103B3
:1016C00093F8543033B92C2303FB0103002283F831
:1016D000422034E02C2303FB0103022283F8422042
:1016E0002DE092B92C2303FB010393F855302BB95D
:1016F0002C2303FB010383F8422020E02C2303FB6F
:101700000103022283F8422019E02C2303FB01038A
:1017100093F8543033B92C2303FB0103002283F8E0
:1017200042200CE02C2303FB0103022283F8422019
:1017300005E02C2303FB0103002283F842202C2325
:1017400001FB03F3C218059C5464D664002482F89C
:101750006040146582F8391082F8614003F1380165
:10176000027C0144006800F07BFF70BD30B583B09F
:1017700004460568D5F840340193D5F84034009309
:10178000009B23F02E030093019B13F0020F07D060
:10179000019B13F0010F25D1009B43F0020300933E
:1017A000019B13F0080F10D0009B43F00803009337
:1017B000019B13F0040F2DD0A369022B15D0E36811
:1017C000012B22D02046FFF7CEFC019B13F0200F07
:1017D00003D0009B43F020030093009BC5F84034E6
:1017E00003B030BDFFF7B2FCD6E7019B03F4C02382
:1017F000B3F5802F04D00121206800F0A7FDE1E7B8
:101800000221206800F0A2FDDCE74EF66022C5F858
:101810000424D7E72046FFF7ACFCD6E7F8B5054629
:101820000E46076807EB411707F5A064A36813F09D
:10183000040F40D00423A360E36843F00203E36095
:10184000A36813F4007F40F09380A36813F0010FA6
:1018500000F0D7802B6943B12C2303FB06539A6C0D
:101860002169C1F31201521A1A652C2303FB065396
:10187000012283F861200021D965A26093F83F30EE
:10188000002B00F08180022B7ED0032B00F0938090
:10189000012B40F083802C2303FB0653012283F8A5
:1018A000602093F85410514083F854103146284674
:1018B000FFF758FC72E0A36813F4807F06D1A36899
:1018C00013F0200F13D02023A360B9E74FF48073E7
:1018D000A3602C2303FB0103072283F86120E36844
:1018E00043F00203E360006800F035FEA8E7A36858
:1018F00013F0080F17D1A36813F4806F25D1A368E4
:1019000013F0800F9CD0E36843F00203E3602C23C4
:1019100003FB0103062283F86120006800F01BFE30
:101920008023A3608CE7E36843F00203E3602C2389
:1019300003FB0103052283F861201023A360082321
:10194000A360006800F007FE7AE7E36843F0020353
:10195000E3602C2303FB0103082283F8612010239A
:10196000A3604FF48063A360006800F0F4FD67E7B4
:10197000E36843F00203E3603146286800F0EBFDC2
:101980004FF40073A360F8BDE36843F00203E36023
:101990003146286800F0DFFD1023A3602B69012B7E
:1019A0001AD02C2101FB065595F8543083F0010321
:1019B00085F85430E7E7D7F8003543F00053C7F80F
:1019C00000352C2303FB0653012283F860203146A7
:1019D0002846FFF7C7FBE1E72C2303FB06539A6C6D
:1019E000B3F84030B2FBF3F313F0010FCBD02C234C
:1019F00003FB065595F8543083F0010385F8543005
:101A0000C1E7A36813F0020F64D0E36823F0020378
:101A1000E3602C2303FB065393F86130012B13D0B2
:101A2000052B23D0062B28D0082B26D0032B42D001
:101A3000072B0FD12C2303FB0653DA6D0132DA6535
:101A4000042283F8602005E02C2303FB06530122C7
:101A500083F860200223A3602C2303FB065393F832
:101A6000602031462846FFF77DFB8CE72C2303FBE3
:101A70000653052283F86020ECE72C2202FB065275
:101A8000D36D0133D365022B06D913460022DA65E4
:101A9000042283F86020DDE72C2303FB0653022297
:101AA00083F86020D7F8003523F0804343F00043EB
:101AB000C7F80035CEE72C2303FB0653022283F838
:101AC0006020D7F8003523F0804343F00043C7F887
:101AD0000035BFE7A36813F0100F3FF454AF2C2379
:101AE00003FB065393F83F30032B0CD00BB1022BB2
:101AF00006D12C2303FB06530022DA652B6983B140
:101B00001023A3603FE72C2303FB06530022DA6572
:101B1000E36843F00203E3603146286800F01BFDF0
:101B2000EEE72C2303FB0653032283F86120E368CE
:101B300043F00203E3603146286800F00CFDDFE764
:101B400070B5036803EB411303F5A064A26812F0BB
:101B5000040F06D00423A360E36843F00203E360AC
:101B600070BD05460E46A26812F0200F18D0202343
:101B7000A3602C2303FB010393F83D30012BEFD12D
:101B80002C2303FB0103002283F83D20022283F86B
:101B90006020E3681343E360006800F0DCFCDFE7EB
:101BA000A26812F4007F24D1A26812F0010F2BD09A
:101BB0002C2303FB01030022DA65A36813F0400F16
:101BC00007D02C2303FB0103012283F83D2040238F
:101BD000A360E36843F00203E3603146286800F045
:101BE000BAFC0123A3602C2101FB065585F8613066
:101BF000B6E7E36843F00203E360006800F0ABFC83
:101C00004FF40073A360ABE7A26812F0400F29D134
:101C1000A26812F0080F3AD1A26812F0100F46D055
:101C20002C2303FB01030022DA65032283F86120E1
:101C300093F83D305BB92C2303FB010393F83C3050
:101C40002BB92C2303FB0103012283F83D20E36819
:101C500043F00203E3603146286800F07CFC102367
:101C6000A3607DE72C2303FB0103042283F861209A
:101C7000012283F83D200022DA65E36843F0020385
:101C8000E360006800F067FC4023A36068E7082376
:101C9000A360E36843F00203E360006800F05BFCCC
:101CA0002C2303FB0655052385F8613058E7A2680D
:101CB00012F0800F29D0036983B12C2202FB0102AC
:101CC000D36D0133D365022B16D82C2303FB0105FA
:101CD000022385F860308023A36041E72C2303FBB7
:101CE0000103062283F86120E36843F00203E36006
:101CF000006800F030FCEEE713460022DA650422AB
:101D000083F86020FFF72EFAE5E7A26812F4806FEF
:101D100027D1A26812F0020F3FF422AFE26822F04E
:101D20000202E2602C2202FB010292F86120012AE9
:101D30002AD0032A5BD0042A6BD0052A70D0062A49
:101D400001D0082A59D12C2101FB0651CA6D01325C
:101D5000CA65022A6AD90022CA65042281F8602075
:101D60004BE0E36843F00203E360006800F0F3FB3C
:101D70001023A3604FF48063A3602C2303FB06555C
:101D8000082385F86130EBE62C2303FB010383F87D
:101D9000602093F83F30023BDBB293422DD80169BB
:101DA00041B92C2303FB060393F8552082F001026E
:101DB00083F85520012920D12C2303FB0653DB6C2B
:101DC000DBB12C2202FB0652B2F840201344013B47
:101DD000B3FBF2F313F0010F0FD02C2303FB0653D8
:101DE00093F8552082F0010283F8552005E02C235A
:101DF00003FB0103022283F860200223A3602C234B
:101E000003FB065393F8602031462846FFF7AAF9F2
:101E1000A6E62C2303FB0103022283F86020ECE7F3
:101E20002C2303FB010383F86020E6E72C2202FB4E
:101E30000652022182F86010D3F8002522F0804279
:101E400042F00042C3F80025D7E7F8B5044605681C
:101E5000284600F0D0F9012800D0F8BD206800F035
:101E6000C6F90028F9D0206800F0C1F910F4001F6D
:101E700003D023684FF400125A61206800F0B7F9CC
:101E800010F4801F03D023684FF480125A61206839
:101E900000F0ADF910F0806F03D023684FF080623E
:101EA0005A61206800F0A3F910F0020F02D02368F5
:101EB00002225A61206800F09AF910F0005F08D001
:101EC00023684FF000525A61D5F8403413F0010FE7
:101ED0001DD0206800F08BF910F0807F26D120689B
:101EE00000F085F910F0080F24D1206800F07FF988
:101EF00010F0100F25D1206800F079F910F0007F64
:101F0000ABD0206800F022FB074600262CE0102111
:101F1000284600F0FDF8284600F012F9012120685B
:101F200000F014FA2046FFF717F9D2E72046FFF732
:101F30001DFCD4E72046FFF703F9236808225A6105
:101F4000D3E72268936923F0100393612046FFF7DB
:101F500061FA2268936943F010039361CBE7F1B211
:101F60002046FFF7EDFD0136A368B34212D906F013
:101F70000F0327FA03F313F0010FF4D005EB461318
:101F8000D3F8003513F4004FE9D0F1B22046FFF743
:101F900045FCE8E723684FF000725A615DE790F86E
:101FA000F832012B0ED010B50446012180F8F8124A
:101FB000006800F009FA206800F09DF8002084F81D
:101FC000F80210BD0220704790F8F832012B0BD0B8
:101FD00010B50446012380F8F832006800F0F6FBE3
:101FE000002084F8F80210BD0220704708B5006890
:101FF00000F0CBF908BD2C2303FB010090F8600032
:1020000070472C2303FB0100006D704708B5006882
:1020100000F008FA08BD08B5006800F0F8F908BD3E
:1020200082B000230193019B013301930E4A934236
:1020300014D80369002BF6DA00230193036943F0F7
:1020400001030361019B01330193074A934208D8BE
:10205000036913F0010FF5D1002000E0032002B066
:1020600070470320FBE700BF400D030084B010B5AC
:10207000044603A880E80E00089B012B1FD1A36B28
:1020800023F48033A363E36823F4840323F0400341
:10209000E360E36823F44013E3600F9B012B09D056
:1020A0002046FFF7BDFF069B012B1BD0BDE810406B
:1020B00004B07047E36843F48013E360F0E7E3683B
:1020C00043F04003E3602046FFF7AAFF0C9B23B9CF
:1020D000A36B43F48033A363E5E7A36B23F480335E
:1020E000A363E0E7A36843F00603A360A36843F09B
:1020F0002003A360DAE7836843F0010383600020D4
:102100007047836823F0010383600020704700005C
:1021100082B000230193890141F020010161019BFC
:1021200001330193054A934205D8036913F0200F48
:10213000F5D1002000E0032002B07047400D0300FD
:1021400082B00023019310230361019B01330193AB
:10215000054A934205D8036913F0100FF5D100200A
:1021600000E0032002B07047400D030010B59DF859
:10217000084084B903334FEA930E4FF0000C08E097
:1021800000EB023303F5805351F8044B1C600CF153
:10219000010CF445F4D3002010BD00B583B0844693
:1021A00008464FEA920E02F00302002305E00CF508
:1021B0008051096840F8041B01337345F7D39AB185
:1021C0000CF5805CDCF8003001934FF0000C5FFAF6
:1021D0008CF3D900019BCB4000F8013B0CF1010CC2
:1021E000013A92B2002AF2D103B05DF804FB4269D1
:1021F000806910407047406900F00100704738B5B1
:102200000546C36823F0C043C360012913D019BB3E
:10221000C36843F08043C3600024012001F038F913
:1022200001342846FFF7E7FF08B1312CF5D9322CED
:1022300014D0002038BDC36843F00053C3600024AD
:10224000012001F025F901342846FFF7D4FF0128C9
:10225000EDD0312CF4D9EAE70120EBE70120E9E7E2
:1022600084B010B5044603A880E80E000023C4F82B
:10227000003EA36B43F40013A363A36B23F400237A
:10228000A363A36B23F48023A363E36B13F4807F26
:1022900010D0059B012B06D0D4F8003423F00403A2
:1022A000C4F800340CE0D4F8003443F00403C4F85C
:1022B000003405E0D4F8003423F00403C4F80034FB
:1022C00010212046FFF724FF2046FFF739FF0022A8
:1022D00009E004EB42134FF0FF31C3F80815002169
:1022E000C3F80C150132049B9342F2D80023A3617A
:1022F0004FF0FF336361E36B13F4807F17D04FF42B
:102300000073636203F18073A3620D4BC4F8003164
:10231000069B1BB9A36943F01003A361A269094B93
:102320001343A3610020BDE8104004B07047802330
:10233000636203F5C003A362034BC4F80031E7E70F
:102340000003E000080020A3E000400000F5806CDE
:10235000D0F8003423F00303C0F80034D0F8003480
:1023600001F003021343C0F80034012903D002290D
:1023700006D0002070474BF68033CCF80430F8E7E5
:1023800041F27073CCF80430F3E730B583B0044603
:1023900000250195D0F840340193019B23F02E03D2
:1023A0000193019B43F48073C0F84034642001F032
:1023B0006FF8019B23F48073C4F840340A2001F0C5
:1023C00067F8284603B030BD82B000230193D0F8EF
:1023D00040340193019B23F02E030193019B13F4DE
:1023E000805F01D101290CD0019B13F4805F05D0DF
:1023F00021B9019B23F48053C0F84034002002B07F
:102400007047019B43F48053C0F84034ECE782B03E
:1024100000230193D0F8403401930198C0F3414068
:1024200002B0704700F58060806880B270472DE987
:10243000F84391461C469DF8245000EB411606F5E2
:10244000A0634FF0FF329A60032D6AD8DFE805F0F1
:10245000025B021840F29D42DA6019F0800F09D148
:10246000C26B12F4807F5ED0DA6842F06002DA60FC
:1024700000270CE0DA6842F48072DA60002706E098
:1024800040F29D62DA6019F0800F36D10027D0F853
:10249000183401F00F01012202FA01F11943C0F8CA
:1024A0001814836943F00073836119F0800F3CD1E5
:1024B0004FF00008FFF7ABFF9DF82030022B37D01C
:1024C0000021A30503F0FE534FEAC92909F4F0499E
:1024D00043EA0903AC0404F440242343BDF8282054
:1024E000C2F30A02134343EA08030B43C6F800355C
:1024F000032D24D03846BDE8F883DA6842F48072B0
:10250000DA600027C3E740F22522DA6019F0800F75
:1025100001D10027BBE7DA6842F4C072DA60002715
:10252000B5E70127B3E70027B1E74FF40048C1E75B
:10253000022802D04FF40031C3E70021C1E7D6F8EA
:10254000003543F00053C6F80035D3E700F580604E
:10255000406980B2704730B400EB411101F5A062D0
:10256000D1F80035C3F38143D1F80045856815F0F3
:10257000200F02D0E40F002C55D033B3022B24D00F
:10258000D1F8003543F08043C1F80035D0F810345D
:1025900013F47F034AD1D1F8000520F00040C1F8C0
:1025A0000005D1F8000540F00040C1F80005D1F861
:1025B000000520F40040C1F800050133B3F57A7F2F
:1025C00031D811680029F8DB2DE0D1F8003543F04F
:1025D0008043C1F80035836813F0200F23D1C36A0C
:1025E00013F47F0319D1D1F8000520F00040C1F8A1
:1025F0000005D1F8000540F00040C1F80005D1F811
:10260000000520F40040C1F800050133B3F57A7FDE
:1026100009D811680029F8DB05E0D1F8003543F04E
:102620000043C1F80035002030BC7047D1F80035B8
:1026300043F00043C1F80035F5E7000000EB41111D
:10264000064AC1F81025D1F8003523F0804343F045
:102650000043C1F800350020704700BF000008802B
:1026600030B585B04B78C46B14F4807F07D00C79FB
:102670002CB9012A16D012B94C79012C1FD04C6903
:102680000CB30D8904EB050C0CF1FF3CBCFBF5FC15
:102690001FFA8CFCBCF5807F17D92D020D614FF419
:1026A000807C12E0CC790CB1022CE4D100EB431415
:1026B000D4F80C5525F07005C4F80C55DBE74978C3
:1026C000FFF7BCFF70E04FF0010CCD78002D52D029
:1026D0000C8904FB0CF40C610C69C4F312043A4D30
:1026E00005EACC4C44EA0C0491F80AC04FEA4C7C51
:1026F0000CF0C04C00EB431344EA0C04C3F8104543
:1027000012B1CC68C3F8144500F5806CDCF80840C1
:1027100014F0010F0CBF4FF0010E4FF0000ED3F874
:10272000005525F00055C3F80055D3F8004544EA9C
:102730004E74C3F80045D3F800450394039C24F07D
:1027400080440394CC78C4B1039C44F400440394C3
:10275000039C44F000440394039CC3F800451ABB57
:10276000CB780BBB4B69FBB1CA79032A15D8DFE8DC
:1027700002F0091E091E0C61AEE7039C24F400441C
:102780000394E5E70333C26A92B2C3F38F039A421C
:1027900003D2836943F020038361002300938B8A73
:1027A0004A78C968FFF7E2FC002005B030BD03336A
:1027B000DCF8102092B2C3F38F039A42EDD2836902
:1027C00043F080638361E8E70000F81F10B504461A
:1027D000FFF797FC10212046FFF79AFC2046FFF7F1
:1027E000AFFC00220AE004EB4211D1F8003523F0DF
:1027F000802343F08043C1F8003501320F2AF2D91B
:102800000020034600E001300F2813D804EB401CE1
:102810000CF5A061DCF8002522F4004242F04042B1
:10282000CCF800250133B3F57A7FECD80A68002A8A
:10283000F8DBE8E74FF0FF33C4F814346361204657
:10284000FFF759FC002010BD002800F0E08170B5B2
:1028500082B00446036813F0010F3BD09F4B9B6886
:1028600003F00C03042B2CD09C4B9B6803F00C034F
:10287000082B21D06368B3F5803F4FD0B3F5A02F6C
:1028800052D0964B1A6822F480321A601A6822F4E9
:1028900080221A606368002B50D000F0F3FD0546DB
:1028A0008E4B1B6813F4003F14D100F0EBFD401B6E
:1028B0006428F5D90320B1E1884B5B6813F4800FDD
:1028C000D8D0864B1B6813F4003F03D06368002BFD
:1028D00000F09F81236813F0020F54D07F4B9B6858
:1028E00013F00C0F3ED07D4B9B6803F00C03082BBC
:1028F00033D0E368002B68D0794B01221A6000F0D6
:10290000C1FD0546754B1B6813F0020F54D100F052
:10291000B9FD401B0228F5D903207FE16F4A1368F7
:1029200043F480331360B5E76C4B1A6842F480229D
:102930001A601A6842F480321A60ABE700F0A2FD18
:102940000546664B1B6813F4003FC3D000F09AFDA8
:10295000401B6428F5D9032060E1604B5B6813F4E9
:10296000800FC6D15D4B1B6813F0020F03D0E368E4
:10297000012B40F05081594A136823F0F803216974
:1029800043EAC1031360236813F0080F42D0636960
:102990006BB3534B0122C3F8802E00F073FD054644
:1029A0004E4B5B6F13F0020F34D100F06BFD401BF8
:1029B0000228F5D9032031E1484A136823F0F803CF
:1029C000216943EAC1031360DDE7454B00221A6029
:1029D00000F058FD0546414B1B6813F0020FD2D0A2
:1029E00000F050FD401B0228F5D9032016E13C4BB6
:1029F0000022C3F8802E00F045FD0546374B5B6F83
:102A000013F0020F06D000F03DFD401B0228F5D95F
:102A1000032003E1236813F0040F77D02F4B1B6CC6
:102A200013F0805F33D1002301932C4B1A6C42F0DA
:102A300080521A641B6C03F080530193019B0125A3
:102A4000284B1B6813F4807F23D0A368012B34D05C
:102A5000052B38D0214B1A6F22F001021A671A6F2A
:102A600022F004021A67A368002B3DD000F00AFD93
:102A700006461A4B1B6F13F0020F46D100F002FD01
:102A8000801B41F288339842F3D90320C6E0002529
:102A9000D6E7144A136843F48073136000F0F2FC25
:102AA0000646104B1B6813F4807FCED100F0EAFC81
:102AB000801B0228F5D90320B0E0084A136F43F0C9
:102AC00001031367CFE7054B1A6F42F004021A6740
:102AD0001A6F42F001021A67C5E700BF00380240D2
:102AE000000047420070004000F0CCFC0646524B0C
:102AF0001B6F13F0020F08D000F0C4FC801B41F2E2
:102B000088339842F3D9032088E0EDB9A369002BFC
:102B100000F08380484A926802F00C02082A51D0E3
:102B2000022B17D0454B00221A6600F0ABFC04467E
:102B3000414B1B6813F0007F42D000F0A3FC001B48
:102B40000228F5D9032069E03B4A136C23F0805337
:102B50001364DBE7394B00221A6600F093FC05464C
:102B6000354B1B6813F0007F06D000F08BFC401B38
:102B70000228F5D9032051E0E369226A1343626A0F
:102B800043EA8213A26A5208013A43EA0243E26A24
:102B900043EA0263284A5360284B01221A6600F078
:102BA00071FC0446244B1B6813F0007F06D100F033
:102BB00069FC001B0228F5D903202FE000202DE03E
:102BC00000202BE0012B2BD01B4B5B6803F4800112
:102BD000E269914226D103F03F02216A8A4223D161
:102BE000616A47F6C0721A40B2EB811F1ED103F42E
:102BF0004031A26A5208013AB1EB024F18D103F0FA
:102C00007063E26AB3EB026F14D1002006E001208A
:102C10007047012002E0012000E0002002B070BDFA
:102C20000120FBE70120F9E70120F7E70120F5E7A4
:102C30000120F3E70120F1E700380240000047429D
:102C400008B5314B9B6803F00C03042B57D0082BBD
:102C500057D12D4B5A6802F03F025B6813F4800F86
:102C60002AD0294B5968C1F3881C4FEA4C11B1EBAB
:102C70000C006EEB0E0E4FEA8E1343EA9063810157
:102C8000091A63EB0E03DB0043EA5173C90011EB31
:102C90000C0C43F10003590200234FEA4C2041EA97
:102CA000DC51FDF7F5FA184B5B68C3F301430133C0
:102CB0005B00B0FBF3F025E0134B5968C1F3881CAF
:102CC0004FEA4C11B1EB0C006EEB0E0E4FEA8E1377
:102CD00043EA90638101091A63EB0E03DB0043EAC8
:102CE0005173C90011EB0C0C43F10003990200234E
:102CF0004FEA8C2041EA9C51FDF7CAFAD3E703481A
:102D000000E0034808BD00BF0038024000127A000E
:102D10000024F400002800F09B8070B50D460446A6
:102D20004F4B1B6803F00F038B4208D2CBB24C4AC7
:102D30001370136803F00F038B4240F08B802368FD
:102D400013F0020F17D013F0040F04D0454A936814
:102D500043F4E0539360236813F0080F04D0414A12
:102D6000936843F4604393603E4A936823F0F00312
:102D7000A1680B439360236813F0010F32D063689E
:102D8000012B21D09A1E012A25D9364A126812F049
:102D9000020F61D033498A6822F0030213438B602B
:102DA00000F070FB06462F4B9B6803F00C03626833
:102DB000B3EB820F16D000F065FB801B41F2883325
:102DC0009842F0D9032042E0264A126812F4003FEC
:102DD000E0D101203BE0234A126812F0007FD9D1F4
:102DE000012034E01E4B1B6803F00F03AB4207D9F0
:102DF000EAB21B4B1A701B6803F00F03AB422DD1D4
:102E0000236813F0040F06D0164A936823F4E053A6
:102E1000E1680B439360236813F0080F07D0114A51
:102E2000936823F46043216943EAC1039360FFF789
:102E300007FF0C4B9B68C3F303130B4AD35CD840CA
:102E40000A4B18600A4B1868FEF7A6FA002070BDFE
:102E5000012070470120FAE70120F8E70120F6E79A
:102E6000003C024000380240A8E501080C000020A8
:102E700008000020014B1868704700BF0C000020BC
:102E800008B5FFF7F7FF044B9B68C3F38223034A9F
:102E9000D35CD84008BD00BF00380240B8E5010847
:102EA00008B5FFF7E7FF044B9B68C3F34233034ABF
:102EB000D35CD84008BD00BF00380240B8E5010827
:102EC0000F2303600B4B9A6802F0030242609A687A
:102ED00002F0F00282609A6802F4E052C2609B68DD
:102EE000DB0803F4E0530361034B1B6803F00F039B
:102EF0000B60704700380240003C024030B583B0A0
:102F00000446036813F0430F15D1236813F00C0F28
:102F10006AD1236813F0200F40F0BF80236813F0BC
:102F2000100F00F0238194F82C20914BC3F8E0217E
:102F3000002003B030BD8F4B00229A6600F0A2FA49
:102F400005468D4B1B6813F0006F06D000F09AFA0F
:102F5000431B022BF5D90320EBE7236813F0010F85
:102F600007D06268A3681B0743EA8213824AC2F84B
:102F70008430236813F0020F15D07F4AD2F88410F2
:102F80006068E3681B0643EA801301F0E0410B43ED
:102F9000C2F88430D2F88C3023F01F03E169013984
:102FA0000B43C2F88C30236813F0400F0AD06268DC
:102FB000E3681B0643EA8213A26843EA02736E4A7F
:102FC000C2F884306B4B01229A6600F05BFA05462A
:102FD000694B1B6813F0006F97D100F053FA401B48
:102FE0000228F5D90320A4E7624B00221A6700F0FB
:102FF00049FA0546604B1B6813F0005F06D000F0ED
:1030000041FA431B022BF5D9032092E7236813F002
:10301000040F16D0584AD2F88810206963691B063D
:1030200043EA801301F0E0410B43C2F88830D2F844
:103030008C3023F4F853216A013943EA0123C2F8A2
:103040008C30236813F0080F14D04B4AD2F8883024
:10305000216903F0706343EA8113A16943EA0173B4
:10306000C2F88830D2F88C3023F44033616A0B43C5
:10307000C2F88C303F4B01221A6700F003FA054674
:103080003D4B1B6813F0005F7FF443AF00F0FAF98B
:10309000401B0228F4D903204BE700230193364B51
:1030A0001A6C42F080521A641B6C03F08053019337
:1030B000019B324A136843F48073136000F0E2F915
:1030C00005462E4B1B6813F4807F06D100F0DAF919
:1030D000401B0228F5D903202BE7274B1B6F13F465
:1030E000407314D0A26A02F440729A420FD0224B6D
:1030F0001A6F22F440721F490120C1F8400E0020CF
:10310000C1F8400E1A671B6F13F0010F12D1A36AAA
:1031100003F44072B2F5407F1DD0174A936823F440
:10312000F813936014490B6FA26AC2F30B021343A6
:103130000B67F3E600F0A6F905460F4B1B6F13F083
:10314000020FE4D100F09EF9401B41F2883398420F
:10315000F3D90320EDE608498A6822F4F81223F037
:10316000704323F4407313438B60DBE70020E0E6F9
:103170000010474200004742003802400070004003
:1031800000230F2B00F2F18070B582B061E08568FA
:103190005E000324B44025EA0405CC68B4402C4307
:1031A0008460456825EA02054C68C4F300129A4021
:1031B0002A4342605BE0DC08083450F8246003F0E6
:1031C000070295000F22AA4026EA020E0A69AA40C9
:1031D00042EA0E0240F824205DE0092200E00022CD
:1031E00002FA0EF22A430234604D45F82420604A68
:1031F00014686FEA0C0224EA0C054E6816F4803F4E
:1032000001D04CEA04055A4C2560646802EA0405C2
:103210004E6816F4003F01D04CEA0405544C65603A
:10322000A46802EA04054E6816F4801F01D04CEA37
:1032300004054F4CA560E46822404D6815F4001F5A
:1032400001D04CEA04024A4CE26001330F2B00F239
:103250008A8001229A400C6804EA020C32EA0404D3
:10326000F3D14C6804F00304013C012C8FD94A6867
:1032700002F00302032A09D0C4685D000322AA40B9
:1032800024EA02048A68AA402243C2604A6802F023
:103290000302022A8FD004684FEA430E032202FA87
:1032A0000EF224EA02044A6802F0030202FA0EF265
:1032B000224302604A6812F4403FC6D000220192C5
:1032C0002C4A546C44F480445464526C02F480429E
:1032D0000192019A9C08A51C244A52F8255003F03B
:1032E00003024FEA820E0F2202FA0EF225EA0205CD
:1032F000214A90423FF473AF02F58062904222D09F
:1033000002F58062904220D002F5806290421ED089
:1033100002F5806290421CD002F5806290421AD081
:1033200002F58062904218D002F58062904216D079
:1033300002F58062904214D002F5806290423FF420
:103340004CAF0A224CE701224AE7022248E7032257
:1033500046E7042244E7052242E7062240E7072227
:103360003EE708223CE702B070BD704700380140DC
:10337000003C014000380240000002400AB1816177
:103380007047090481617047074AD36823F4E063FA
:103390001B041B0C000200F4E060034343F0BF6316
:1033A00043F40033D360704700ED00E000B5194BE3
:1033B000DB68C3F30223C3F1070CBCF1040F28BF81
:1033C0004FF0040C03F1040EBEF1060F18D9033BB5
:1033D0004FF0FF3E0EFA0CFC21EA0C0199400EFA68
:1033E00003F322EA0303194300280BDB0901C9B2E6
:1033F00000F1604000F5614080F800135DF804FBC7
:103400000023E5E700F00F000901C9B2024B19548F
:10341000F4E700BF00ED00E014ED00E0002807DB5A
:1034200000F01F02400901239340024A42F8203075
:10343000704700BF00E100E008B50B4B1A6842F48A
:1034400000721A601A6842F480621A601A6842F4C4
:1034500080721A600320FFF797FF0F20FDF79CFF93
:10346000FDF77EFF002008BD003C0240034A1168C2
:10347000034B1B780B441360704700BF7C4A00204D
:1034800004000020014B1868704700BF7C4A0020F0
:1034900038B50446FFF7F6FF0546B4F1FF3F02D00A
:1034A000044B1B781C44FFF7EDFF401BA042FAD3EE
:1034B00038BD00BF0400002058B110B50446437960
:1034C0001BB101236371002010BD0371FDF722FAC7
:1034D000F7E70120704730B40B68012B1AD002685F
:1034E00022F4FF4222F07F024B688C682343CC68B1
:1034F00023430C6923434C6923438C692343CC69E0
:1035000023430C6A2343496A0B431343036000209F
:1035100030BC7047026822F4F842CB690C6A1C4345
:103520004B6A1C431443426822F4FF4222F07F029C
:103530004B688D682B43CD682B430D692B434D6938
:103540002B4389690B43134304604360DFE710B5E5
:10355000012A25D0826802F070420B68013B4C685A
:1035600004F1FF3C43EA0C138C6804F1FF3C43EA8E
:103570000C23CC6804F1FF3C43EA0C330C6904F1E2
:10358000FF3C43EA0C434C6904F1FF3C43EA0C5313
:103590008969013943EA016313438360002010BD48
:1035A000826822F4700C2CF4704CCA6802F1FF3E61
:1035B0004B695A1E120542EA0E3242EA0C02C368F7
:1035C00003F0704C0B68013B4C6804F1FF3E43EA8A
:1035D0000E138C6804F1FF3E43EA0E230C6904F1DC
:1035E000FF3E43EA0E438969013943EA016343EA36
:1035F0000C038260C360D1E7E0B138B50D460446E4
:1036000090F82C308BB1022384F82C30214651F8ED
:10361000040BFFF760FF626829462068FFF797FFF9
:10362000012384F82C30002038BD80F82D30FDF7C0
:1036300037FAE8E701207047002800F0CC8070B529
:10364000044690F83D30002B77D0242384F83D3099
:103650002268136823F0010313602268136843F49F
:10366000004313602268136823F400431360FFF7DC
:1036700007FC62685A4B9A4264D85A4B98428CBFF6
:1036800000230123002B40F0A8805749A1FB003103
:103690008B0C25686A6822F03F0242EA91426A6018
:1036A00021680A6A22F03F0266684D4DAE424FD84B
:1036B000013313430B622168CA6922F44F4222F09E
:1036C000FF026668464B9E424CD8431E7600B3FB11
:1036D000F6F3013340F6FC70034278D0C3F30B03DA
:1036E0001343CB6121680B6823F0C003E269206AB1
:1036F000024313430B6021688B6823F4034323F0D8
:10370000FF032269E068024313438B602168CB68A2
:1037100023F0FF036269A06902431343CB60226870
:10372000136843F00103136000202064202384F811
:103730003D30206384F83E0070BD80F83C30FDF7DA
:10374000E1F982E7294B98428CBF0023012399E7D6
:103750004FF4967505FB03F3254DA5FB03539B0919
:103760000133A6E7A368BBB9451E06EB460CB5FBC3
:10377000FCF50135C5F30B05B5FA85F56D0945BBBB
:10378000C3B9013806EB4603B0FBF3F30133C3F3CF
:103790000B0343F40043A3E7451E06EB860C0CEB3A
:1037A0008C0CB5FBFCF50135C5F30B05B5FA85F5B9
:1037B0006D09E4E7013806EB860303EB8303B0FBF6
:1037C000F3F30133C3F30B0343F4404388E70423CB
:1037D00086E7012384E7012070470120ACE700BFA2
:1037E000A08601007F841E0083DE1B43FF083D008E
:1037F000D34D621090F83D30DBB2202B01D0022077
:103800007047242380F83D300268136823F00103D9
:1038100013600268536A23F0100353620268536A0C
:10382000194351620268136843F0010313602023B7
:1038300080F83D300020704790F83D30DBB2202BFF
:1038400001D002207047242380F83D3002681368BD
:1038500023F0010313600268536A9BB223F00F0345
:10386000194389B251620268136843F0010313607F
:10387000202380F83D3000207047F0B54D68046883
:10388000E368C3F30B431D444FEAC21C04EBC214AC
:10389000D4F8883003F47043C4F888300B680468A7
:1038A000E668C6F30B463344013304EBC21443EA23
:1038B0000543C4F88830CD680468E368C3F30A039D
:1038C0001D4404EBC21EDEF88C3003F47043CEF8C6
:1038D0008C308B680468E668C6F30A06334401330B
:1038E00004EBC21443EA0543C4F88C30036803EBCD
:1038F000C213D3F8944024F00704C3F8944003683B
:1039000003EBC2130C69C3F8944091F8317091F83D
:1039100032508E69046804EBC21404F1840ED4F8AA
:103920009C300024CEF8184091F8303043EA072349
:1039300043EA0543056805EBC21543EA0663C5F88B
:103940009C30036803EBC213D3F8985025F0FF05B1
:10395000C3F89850036803EBC2134D69C3F898503D
:10396000036803EBC213D3F8A05025F4E06525F0FB
:103970000705C3F8A0500D6A036803EBC213CE69B4
:103980003543C3F8A050036803EBC213D3F8AC501F
:10399000C3F8AC40036803EBC2124B6AC2F8AC3008
:1039A0000C696CB1012C3BD0042C3BD0022C08D00C
:1039B000032C39D0072C01D0012402E0022400E0BE
:1039C000042402686244D2F8B03003F0E023C2F865
:1039D000B0308B6A04FB03F54B680A689B1A04FB42
:1039E00003F303330268624443EA0543C2F8B0308C
:1039F00003686344D3F8B42022F4FF6222F0070284
:103A0000C3F8B42003686344CA6AC3F8B4200368E7
:103A10009C44DCF8843043F00103CCF88430F0BDE2
:103A20000324CEE70224CCE70224CAE7002872D0A0
:103A300038B5044690F8A130002B67D0022384F8F3
:103A4000A1302268936923F07043936121688A69E9
:103A50006368A0680343E06803432069034313439A
:103A60008B6121688A682D4B1A408A6020688268C1
:103A7000A169656941EA05410A4382602168CA6813
:103A80001A40CA602068C268216AE56941EA0541B6
:103A90000A43C26021680A691A400A612068026903
:103AA000A16A656A41EA05410A43026121684A69DF
:103AB00013404B61E06A21684B69226B42EA004285
:103AC00013434B6194F8350094F836301B04216899
:103AD000CA6A02F07F42CA622168CA6A43EA0023C6
:103AE00094F8340003431343CB622268536B43F0D2
:103AF000060353632268936943F001039361002036
:103B0000C4F8A400012384F8A13038BD80F8A030A7
:103B1000FDF7A8F892E70120704700BF00F800F019
:103B200070477047704770B5044603689D6B5E6BC5
:103B300015F0040F02D016F0040F12D115F0020F89
:103B400002D016F0020F21D115F0010F02D016F0AD
:103B5000010F32D115F0080F02D016F0080F3DD139
:103B600070BD5A6B22F004025A6303680422DA63C0
:103B7000D0F8A43043F00103C0F8A43080F8A120AD
:103B8000002380F8A030FFF7CBFFD7E72268536B04
:103B900023F00203536323680222DA63D4F8A430CB
:103BA0001343C4F8A430042384F8A130002384F81C
:103BB000A0302046FFF7B4FFC6E72268536B23F01E
:103BC0000103536322680123D36384F8A1300023E7
:103BD00084F8A0302046FFF7A4FFBBE72268536BB0
:103BE00023F00803536323680822DA63012384F86F
:103BF000A130002384F8A0302046FFF793FFAFE701
:103C0000F8B590F8A030012B2CD004460D4616468E
:103C1000012780F8A070022380F8A1304FF0340C07
:103C20000CFB020C0CF1380C8E46BEE80F00ACE821
:103C30000F00BEE80F00ACE80F00BEE80F00ACE8D4
:103C40000F00DEF80030CCF800303246294620461E
:103C5000FFF713FE23685F6284F8A170002084F8E8
:103C6000A000F8BD0220FCE700285AD010B5044699
:103C7000436A33B94368B3F5827F05D00023C3613B
:103C800002E00023036143610023A36294F85130F2
:103C9000002B40D0022384F851302268136823F0AF
:103CA00040031360636803F48273A26802F4044261
:103CB0001343E26802F400621343226902F0020235
:103CC0001343626902F001021343A26902F4007215
:103CD0001343E26902F038021343226A02F08002C1
:103CE0001343A26A02F40052216813430B60638BF2
:103CF00003F00403626A02F01002216813434B6070
:103D00002268D36923F40063D36100206065012336
:103D100084F8513010BD84F850302046FDF7A6F8E5
:103D2000B8E70120704710B4036A046A24F0010464
:103D30000462846924F0F00C4CEA021223F00A03B6
:103D40000B43826103625DF8044B704710B4046A50
:103D500024F0100404628469036A24F4704C4CEA71
:103D6000023223F0A00343EA0113826103625DF88B
:103D7000044B7047836823F070030B4343F0070341
:103D80008360704790F83D30DBB2012B37D10223BE
:103D900080F83D300268D36843F00103D3600368C4
:103DA000194A934220D0B3F1804F1DD0A2F57C4236
:103DB000934219D002F58062934215D002F58062D9
:103DC000934211D002F5784293420DD002F5705221
:103DD000934209D0A2F59432934205D01A6842F07A
:103DE00001021A60002070479A6802F00702062A52
:103DF00007D01A6842F001021A60002070470120C3
:103E000070470020704700BF0000014070477047B6
:103E10007047704710B5044603681A6912F0020F24
:103E200011D0DA6812F0020F0DD06FF002021A61A1
:103E30000123037703689B6913F0030F70D0FFF72A
:103E4000E6FF0023237723681A6912F0040F12D0CB
:103E5000DA6812F0040F0ED06FF004021A61022328
:103E6000237723689B6913F4407F5FD02046FFF7D8
:103E7000CEFF0023237723681A6912F0080F12D0AF
:103E8000DA6812F0080F0ED06FF008021A610423EE
:103E900023772368DB6913F0030F4ED02046FFF72A
:103EA000B6FF0023237723681A6912F0100F12D08F
:103EB000DA6812F0100F0ED06FF010021A610823AA
:103EC00023772368DB6913F4407F3DD02046FFF75A
:103ED0009EFF0023237723681A6912F0010F03D095
:103EE000DA6812F0010F36D123681A6912F0800FD8
:103EF00003D0DA6812F0800F34D123681A6912F007
:103F0000400F03D0DA6812F0400F32D123681A69EB
:103F100012F0200F03D0DA6812F0200F30D110BD5C
:103F2000FFF774FF2046FFF773FF8AE72046FFF78D
:103F30006DFF2046FFF76CFF9BE72046FFF766FF0B
:103F40002046FFF765FFACE72046FFF75FFF2046FE
:103F5000FFF75EFFBDE76FF001021A612046FCF734
:103F600019FBC1E76FF080021A61204600F073F977
:103F7000C3E76FF040021A612046FFF74AFFC5E72A
:103F80006FF020021A61204600F064F9C7E70000D4
:103F90000368304A904212D0B0F1804F0FD0A2F5A2
:103FA0007C4290420BD002F58062904207D002F52D
:103FB0008062904203D002F57842904203D123F010
:103FC00070034A681343234A90422AD0B0F1804FCD
:103FD00027D0A2F57C42904223D002F58062904225
:103FE0001FD002F5806290421BD002F578429042C9
:103FF00017D002F57052904213D002F580629042C1
:104000000FD002F5806290420BD0A2F59832904218
:1040100007D002F58062904203D002F580629042A0
:1040200003D123F44073CA68134323F080034A6921
:10403000134303608B68C3620B688362054B98422D
:1040400003D003F58063984201D10B690363012318
:10405000436170470000014040B310B5044690F83A
:104060003D30F3B1022384F83D30214651F8040B72
:10407000FFF78EFF012384F8463084F83E3084F841
:104080003F3084F8403084F8413084F8423084F87E
:10409000433084F8443084F8453084F83D300020C3
:1040A00010BD80F83C30FCF757FFDBE7012070477C
:1040B00010B4846824F47F4C42EA03220A4342EAA3
:1040C0000C0282605DF8044B704790F83C30012B85
:1040D00078D010B50446012380F83C30022380F8E4
:1040E0003D300268936823F47F4323F077039360A5
:1040F0000B68602B4CD029D8402B54D00CD9502BB6
:1041000022D1CA6849680068FFF70DFE5021206877
:10411000FFF730FE002005E0202B0DD009D9302B11
:104120000AD00120012384F83D30002384F83C307C
:1041300010BD0BB1102B05D119462068FFF71AFEF0
:104140000020EFE70120EDE70120EBE7B3F5805F0A
:1041500034D0B3F5005F0CD1CB684A688968006839
:10416000FFF7A6FF2268936843F480439360002022
:10417000D8E7702B24D1CB684A6889680068FFF7BC
:1041800097FF2268936843F0770393600020C9E7A4
:10419000CA6849680068FFF7D9FD60212068FFF709
:1041A000E9FD0020BEE7CA6849680068FFF7BBFD6B
:1041B00040212068FFF7DEFD0020B3E70020B1E7D3
:1041C0000120AFE70220704790F83C30012B3DD032
:1041D00010B4012380F83C30022380F83D3003689E
:1041E0005A689C6822F0700C0A6842EA0C025A6015
:1041F0000368174A93421AD0B3F1804F17D0A2F543
:104200007C42934213D002F5806293420FD002F5B4
:10421000806293420BD002F57842934207D002F5B8
:104220007052934203D0A2F59432934204D124F009
:1042300080044A6814439C60012380F83D300023C9
:1042400080F83C3018465DF8044B704702207047F8
:10425000000001407047704738B504460268136992
:1042600023F44053C1680B4313618368026913430D
:1042700042691343C2691A430168CB6823F41643A9
:1042800023F00C031343CB600268536923F440739B
:1042900081690B4353610368314A934206D002F5AA
:1042A0008062934202D0FEF7EBFD01E0FEF7F8FDDD
:1042B000E369B3F5004F29D00021031849411B18C9
:1042C00041F10001C90041EA5371DB00181863682D
:1042D0004FEA83024FEA937341F10001FBF7D8FFE5
:1042E000204DA5FB00325109642303FB11031B0180
:1042F0003233A5FB03235B0903F0F00202EB01124A
:1043000003F00F03216813448B6038BD00230218AB
:1043100043EB0301121841F10001C90041EA527157
:10432000D200101841F10001626892185B41FBF75E
:10433000AFFF0C4DA5FB00325109642303FB1103B1
:10434000DB003233A5FB03235B095A0002F4F87249
:1043500002EB011203F00703216813448B60D4E7DA
:10436000001001401F85EB5158B310B5044690F87A
:104370003D300BB3242384F83D302268D36823F406
:104380000053D3602046FFF767FF2268136923F4C8
:10439000904313612268536923F02A035361226812
:1043A000D36843F40053D36000202064202384F8B2
:1043B0003D3084F83E3010BD80F83C30FCF7FEFD07
:1043C000D8E7012070470000034AD2F8883043F450
:1043D0007003C2F88830704700ED00E08446002387
:1043E00006E003F1E0020CEB820200215160013390
:1043F0000E2BF6D9002305E00CEB0302002182F816
:104400001C110133B3F5007FF6D300208CF80000B7
:104410008CF8010001238CF80230CCF8C4038CF82E
:10442000183040228CF806208CF819008CF81C03F8
:104430008CF81D338CF81F038CF81E03704708B5E9
:104440000378DBB20B2B00D008BDD0F87C33002BF7
:10445000FAD09B699847F7E770B584B00446457871
:10446000072D00F22C81DFE815F0080048006900F4
:104470009A00BF00E500FE001701082100F0FDFCD6
:1044800018B1032821D0012509E194F82D33A37137
:104490000125657002930026019694F81D33009360
:1044A00094F81C3380222179204600F0E5FDA379A1
:1044B0000293019694F81D33009394F81C3332460E
:1044C0006179204600F0D8FDE9E094F81E3301330D
:1044D000DBB284F81E33032B03D90D23237001258F
:1044E000DDE06179204600F0EFFD2179204600F003
:1044F000EBFD002323700125D1E0122100F0BDFC6B
:1045000010B902236370CAE0032840F0C88094F811
:104510001E330133DBB284F81E33032B02D90D2383
:104520002370BCE06179204600F0CEFD2179204661
:1045300000F0CAFD002363702370B0E0012100F099
:10454000E6FC18B1032824D00125A8E00220FCF7DE
:1045500083FE012584F81C5303236370A37902931F
:104560000026019694F81D3300932B468022217972
:10457000204600F081FDA3790293019694F81D3343
:10458000009394F81C3332466179204600F074FDA4
:1045900085E00D2323700023637001257FE009214E
:1045A00000F084FC18B904236370012577E0032828
:1045B00001D0012573E094F81E330133DBB284F897
:1045C0001E33032B03D90D232370012567E0617986
:1045D000204600F079FD2179204600F075FD00238A
:1045E0006370237001255AE0B0F83A1300F05EFCC6
:1045F00018B905236370012551E0032801D0012576
:104600004DE094F81E330133DBB284F81E33032BE4
:1046100003D90D232370012541E06179204600F084
:1046200053FD2179204600F04FFD00236370237075
:10463000012534E090F8341319B90623437001259D
:104640002DE0FF2300F58E7200F049FC18B9062317
:104650006370012523E0032801D001251FE0062314
:10466000637001251BE090F8351319B907234370D7
:10467000012514E0FF2300F58E7200F030FC18B91C
:104680000723637001250AE0032801D0012506E015
:1046900007236370012502E090F8365315B92846C8
:1046A00004B070BDFF2300F58E72294600F017FCA0
:1046B00005460028F3D0032803D00125EFE70125A4
:1046C000EDE70025EBE7D8B170B50E46044680F85B
:1046D000CC230025C0F87C53C0F88053FFF77EFE42
:1046E00084F8235384F8205384F8215384F8225308
:1046F0000EB1C4F8D4632046FCF742FD002070BD23
:10470000022070470A4651B1D0F880334BB9591C8A
:10471000C0F88013DE3340F82320002070470220C9
:1047200070470220704790F83C338B4203D980F8E1
:104730002413002070470220704710B50446002063
:104740000BE04FF01A0C0CFB0E4E9EF849C39C4533
:104750001CD0FF2B1AD00130C0B2012815D88646D4
:104760004FF01A0C0CFB004C9CF847C38C4501D051
:10477000FF29F0D14FF01A0C0CFB0E4C9CF848C3EB
:104780009445DED0FF2AE6D1DBE7FF2010BD10B54F
:104790000446FCF76FFD01212046FCF73BFD00209D
:1047A00010BD30B587B0044602238DF8173090F85D
:1047B0002133DBB2012B11D02378DBB20B2B7BD85A
:1047C000DFE813F00F002100450005017A007D00AD
:1047D000E30092009C00A600B700FC0003230370D6
:1047E000EAE794F82033002B66D001232370C82019
:1047F000FCF732FD2046FCF74DFD002384F81C3306
:10480000C4F8C83358E094F82333012B0FD0D4F800
:10481000C833B3F57A7F13D994F81F330133DBB271
:1048200084F81F33032B08D90D23237044E00023A1
:1048300084F81F33022323703EE0002323703BE003
:104840000A33C4F8C8330A20FCF706FD34E0D4F874
:10485000D43313B10421204698476420FCF7FCFCB4
:104860002046FCF7BBFC84F81D03052323700021C0
:10487000204600F016FC60718021204600F011FCFB
:1048800001462071A37902930025019594F81D3308
:10489000009394F81C338022204600F0EDFBA379AE
:1048A0000293019594F81D33009394F81C332A4623
:1048B0006179204600F0E0FB002007B030BD2046C3
:1048C000FFF7CAFD8DF817009DF81730002BF3D1C4
:1048D00084F8243394F83733012B02D00723237054
:1048E000EAE708232370E7E7D4F8D433002BE3D0BA
:1048F00001212046984708232370DDE794F83D13F3
:10490000204600F015FB0028D6D109232370D3E7F9
:1049100094F83F3313F0200F02D10A232370CBE722
:104920000121204600F015FB0028C5D10A23237081
:10493000C2E7D4F88033002BBED00023C4F87C3308
:1049400073B1D4F87C33EBB19B6820469847B0B97B
:1049500006232370D4F8D433032120469847ABE7CD
:1049600003F1DE0254F82220107994F847138842AC
:1049700002D00133DBB2E3E7C4F87C23E1E70D2387
:10498000237099E70D23237096E7D4F87C3393B115
:104990001B69204698478DF817009DF8173013B90A
:1049A0000B23237088E79DF81730DBB2022B83D1ED
:1049B0000D23237080E70D2323707DE7D4F87C332B
:1049C000002B3FF479AF5B692046984774E70023DA
:1049D00084F821332046FFF701FDD4F87C332BB156
:1049E000DB68204698470023C4F87C33D4F8D433DE
:1049F00013B105212046984794F82233DBB2012BEE
:104A000003D02046FCF736FC56E7002384F8223317
:104A10002046FFF7BCFE4FE7C0F8C413704708B547
:104A2000D0F8C4230132C0F8C423FFF708FD08BD45
:104A3000012380F823337047002380F82333704725
:104A40000346012280F82023002083F8210383F805
:104A50002203704738B50446012380F8213300252E
:104A600080F8205380F82353FCF70CFC2179204672
:104A700000F02AFB6179204600F026FB284638BD6D
:104A80000B7803704B7843708B7891F803C043EA3E
:104A90000C2343800B7903714B7943718B798371BC
:104AA000CB79C371082A16D90B7A4A7A43EA0223D2
:104AB00003818B7ACA7A43EA022343810B7B4A7BC8
:104AC00043EA022383818B7B8373CB7BC3730B7C91
:104AD00003744B7C437470470B7803704B784370BE
:104AE0008B788370CB78C3700B7903714B794371EA
:104AF0008B798371CB79C3710B7A037270470B7812
:104B000003704B7843708B788370CB78C3700B79CC
:104B10004A7943EA022383808B7983717047437813
:104B2000032B00D070470378023B9A4228BF1A46F5
:104B300092B2002307E000EB030C9CF802C001F8DE
:104B400001CB02339BB29342F5D300230B70E9E70C
:104B500030B583B00446057E6B1E0A2B00F2DE8062
:104B6000DFE803F00610354154617E8A9DAAC1003A
:104B7000427900F1100100F00FFA02232376284653
:104B800003B030BD4179FCF73FFB0546012805D055
:104B9000042818D0022816D00125F0E7237CE28AE9
:104BA00042B113F0800F02D105232376E7E70323F8
:104BB0002376E4E713F0800F02D107232376DEE7A4
:104BC00009232376DBE70B2323760125D7E7D0F8EB
:104BD000C433C38103798289816800F004FA042315
:104BE00023760125CBE70179FCF70EFB012806D0DF
:104BF000052800F09580042804D00125BFE709238B
:104C00002376F5E70B2323760125B8E701250095E8
:104C100043798289816800F0D0F9D4F8C433E38104
:104C200006232376ABE74179FCF7EEFA0546012827
:104C300007D0052808D002280AD004280CD0012566
:104C40009DE7072323769AE70C232376032596E72F
:104C500005232376012592E70B23237602258EE791
:104C600003790022114600F0BEF9D4F8C433E38181
:104C700008232376012582E70179FCF7C5FA01288C
:104C800005D0042807D005284CD0012577E70D234F
:104C90002376002573E70B23237601256FE7012593
:104CA000009543790022114600F087F9D4F8C43307
:104CB000E3810A23237662E74179FCF7A5FA01280C
:104CC00005D0022807D0042809D0012557E70D2375
:104CD0002376002553E70923237601254FE70B238D
:104CE000237601254BE7437E0133DBB24376022B6B
:104CF00003D801250576857041E7D0F8D433062125
:104D00009847002565766179204600F0DDF9217924
:104D1000204600F0D9F92570022530E701252EE75D
:104D200003252CE703252AE703780A8813440B8020
:104D30000378184470472DE9F04182B00C460B7897
:104D400003704B7843708B78C97843EA0123438022
:104D50002379037163794371A3798371E379C37113
:104D6000237A0372092A44D905460923ADF806308F
:104D70000026012E3DD86A88BDF806309A4238D9FF
:104D80000DF106012046FFF7CFFF04464378042BC0
:104D9000EFD1B0461A2006FB00F008302844214627
:104DA0000230FFF799FE00271A2303FB08539B7B71
:104DB000BB421BD96A88BDF806309A4216D90DF15C
:104DC00006012046FFF7B0FF04464378052BEBD1E0
:104DD00001371A2000FB08F000EBC7000830284418
:104DE00021460430FFF78BFEFFB2DDE70136F6B255
:104DF000BFE702B0BDE8F08110B504468078012815
:104E000003D0022808D0012010BDA160A281012397
:104E100023760223A370F7E72046FFF799FE30B10F
:104E2000032804D00228EFD10123A370ECE701236B
:104E3000A37000232376E7E708B58E46944619460B
:104E4000BDF808208378012B02D0FFF7D5FF08BDFD
:104E50006EF07F0E80F810E006234374A0F812C0B5
:104E60000CF47F4CBCF5407F03D000238382C282C8
:104E7000EBE740F209438382F9E7F0B583B00446DB
:104E800000F58E760D46009133464FF48072002176
:104E9000FFF7D2FF074610B1384603B0F0BD2A46EF
:104EA000314604F22630FFF7EBFDF5E7F0B583B0AD
:104EB00004460D4600F11C06009133464FF4007283
:104EC0000021FFF7B9FF074610B1384603B0F0BD27
:104ED0002A46314604F54E70FFF72DFFF5E7F0B591
:104EE00083B016461D4600F58E740093234641F4A8
:104EF00040720021FFF7A0FF074610B1384603B00B
:104F0000F0BD2A4631462046FFF709FEF6E708B510
:104F10008378012B04D000221146FFF76DFF08BDF6
:104F2000002303740522427441828382C382F2E724
:104F300008B58378012B04D000221146FFF75CFFEF
:104F400008BD002303740922427441828382C38214
:104F5000F2E708B58378012B04D000221146FFF751
:104F60004BFF08BD002303740322427441828382F5
:104F7000C382F2E708B58378012B04D000221146E2
:104F8000FFF73AFF08BD0223037401234374002393
:104F900043828182C382F1E710B584B00B4611468B
:104FA000002403940822029201930094234622468F
:104FB000FCF793F9204604B010BD30B585B00C461F
:104FC00019469DF8203090F81D5305B10023039336
:104FD000029201940123009300231A46FCF77DF905
:104FE000002005B030BD30B585B00D46194600240F
:104FF000039402920195012200922346FCF76DF979
:10500000204605B030BD30B585B00C4619469DF838
:10501000203090F81D5305B10023039302920194B0
:105020000123009302230022FCF757F9002005B06A
:1050300030BD30B585B00D46194600240394029268
:105040000195012200920223FCF747F9204605B0A2
:1050500030BD00230A2B0CD803F1E00200EB8202E2
:10506000526812F4004F02D00133DBB2F2E798B27B
:1050700070474FF6FF70704710B584B0BDF8204000
:1050800002949DF81C4001949DF818400094FCF790
:1050900009F9002004B010BD08B5FCF716F900208E
:1050A00008BD38B504460D46FFF7D3FF4FF6FF7332
:1050B000984207D000F00F0345F40045E03304EBBD
:1050C00083035D60C0B238BD0A2906D8E03100EB29
:1050D00081004368C3F30E03436000207047002043
:1050E000704708B5212202742022427400224282B5
:1050F00082820722C282FFF77FFE08BD08B5A12287
:105100000274212242740022428282820722C282D9
:10511000FFF772FE08BD38B50446D0F87C33D96974
:105120004031FFF7EBFF054620B9D4F8D433022114
:1051300020469847284638BD38B50446D0F87C3319
:10514000DD69297879B9297BB1B9697BF1B9D4F8DE
:105150007C33D86928B103F09BFDD4F87C3300225E
:10516000DA61002038BDFFF797FF29782046FFF766
:10517000ABFF00232B70E6E72046FFF78DFF297B6E
:105180002046FFF7A1FF00232B73DEE72046FFF741
:1051900083FF697B2046FFF797FF00236B73D6E7F9
:1051A000F0B585B00446012302221146FFF7C5FA87
:1051B000012800F2AE80064601462046FFF7B3FA0A
:1051C0000746002840F0A980D4F87C53502003F013
:1051D00057FDE861D4F87C33DD69002D00F09F8035
:1051E00050220021284603F05BFD1A2303FB0643EF
:1051F00093F84E2393F94E33002B72DB69782046E7
:10520000FFF74FFF014628706A786B8902930323EA
:10521000019394F81D33009394F81C332046FFF754
:105220002BFF002229782046FCF701F800231A46BC
:105230000A212046FFF781FA012872D81A2303FBBE
:10524000004393F84E2393F94E33002B51DBAA739E
:105250001A2303FB0043B3F850332B831A2303FBB9
:10526000004393F8562393F95633002B49DBAA7376
:105270001A2303FB0040B0F858332B83A97B204648
:10528000FFF70FFF6873E97B2046FFF70AFF2873DB
:10529000AA7B697B2B8B02930226019694F81D331F
:1052A000009394F81C332046FFF7E6FEEA7B297B47
:1052B0006B8B0293019694F81D33009394F81C3382
:1052C0002046FFF7D9FE002685F84C603246697B00
:1052D0002046FBF7ACFF3246297B2046FBF7A7FFB1
:1052E00018E06A701A2000FB0646B6F850336B814E
:1052F00084E7EA731A2303FB0043B3F850336B834C
:10530000ACE7EA731A2303FB0040B0F858336B8311
:10531000B4E70227384605B0F0BD0227FAE70227B6
:10532000F8E70227F6E7704730B583B00546D0F8B6
:105330007C33DC6994F84D30012B03D0022B19D05B
:1053400003B030BD606A228B90420AD9637BE16969
:10535000012000902846FFF756FE022384F84D30C6
:10536000EEE7637BE1690122009282B22846FFF7F3
:105370004AFEF2E7617BFBF747FF012805D00228D0
:10538000DED1012384F84D30DAE7636A228B934241
:105390000AD99B1A6362E3691344E361636A33B118
:1053A000012384F84D30CBE700236362F6E7002346
:1053B00084F84D302846FFF7B6FFC1E7704738B58F
:1053C0000446D0F87C33DD6995F84E30032B02D0CB
:1053D000042B09D038BD2B7B6A8B296AFFF729FE85
:1053E000042385F84E30F5E7297BFBF70DFF0128F4
:1053F000F0D1297B2046FBF701FFAB6A83420BD03B
:105400006A8B824208D21B1AAB622B6A184428624C
:10541000032385F84E30DDE7002385F84E30204623
:10542000FFF7CCFFD6E7704770B50446D0F87C3361
:10543000DE6996F84C50042D04D8DFE805F03F05EE
:1054400013394100012539E0B16CFFF74AFE18B964
:10545000022386F84C3031E001283AD0042386F844
:105460004C302BE006F14001FFF748FE0546C0B97D
:10547000002386F84C30736C23F07F42B16C4B688C
:1054800023F07F439A4201D0012517E0326C0B686C
:105490009A4201D0012511E02046FFF7C4FF012503
:1054A0000CE001280AD0042386F84C30012505E0E1
:1054B000FFF73AFF2046FFF782FF0125284670BD1F
:1054C0000021FFF757FD30B9002386F84C30012545
:1054D000F4E70546F2E70125F0E780B483B000AFBA
:1054E000786000BF0C37BD465DF8047B704780B420
:1054F00083B000AF786000BF0C37BD465DF8047B19
:105500007047000080B483B000AF7860044A7B68C5
:105510001A607B6818460C37BD465DF8047B7047FF
:1055200004E6010880B582B000AF78607868FFF7C4
:10553000E9FF0421786804F0B3FB7B68184608375C
:10554000BD4680BD80B483B000AF7860044A7B68FC
:105550001A607B6818460C37BD465DF8047B7047BF
:1055600004E6010880B483B000AF7860064A7B6827
:105570001A607B6800225A607B6818460C37BD466B
:105580005DF8047B704700BFF4E5010880B483B088
:1055900000AF7860044A7B681A607B6818460C3755
:1055A000BD465DF8047B7047F4E5010880B582B024
:1055B00000AF78607868FFF7E9FF0821786804F0A9
:1055C0006FFB7B6818460837BD4680BD80B582B04A
:1055D00000AF7860094A7B681A60094A7B685A60A4
:1055E0007B6804331846FFF7D1FF7B681846FFF746
:1055F00089FF7B6818460837BD4680BDCCE50108A9
:10560000E4E50108A0F10400E0E700BF80B582B046
:1056100000AF78607868FFF7D9FF1021786804F050
:105620003FFB7B6818460837BD4680BDA0F10400EB
:10563000ECE7000080B582B000AF786039607B682D
:105640001846FFF77FFF7B6804331846FFF78AFF91
:10565000064A7B681A60064A7B685A607B683A682B
:10566000DA607B6818460837BD4680BDCCE5010886
:10567000E4E5010880B483B000AF786000BF0C3768
:10568000BD465DF8047B704780B483B000AF78609E
:1056900000BF0C37BD465DF8047B704780B483B013
:1056A00000AF7860044A7B681A607B6818460C3744
:1056B000BD465DF8047B7047BC00020880B582B02F
:1056C00000AF78607868FFF7E9FF2821786804F078
:1056D000E7FA7B6818460837BD4680BD80B483B0C2
:1056E00000AF7860002318460C37BD465DF8047B98
:1056F000704780B483B000AF78600B467B807B68D6
:105700007A889A8000BF0C37BD465DF8047B7047ED
:1057100080B483B000AF78600B467B807B687A886A
:10572000DA8000BF0C37BD465DF8047B704780B45B
:1057300083B000AF78600B467B807B687A881A81E3
:1057400000BF0C37BD465DF8047B704780B483B062
:1057500000AF78600B467B807B687A885A8100BFF7
:105760000C37BD465DF8047B704780B483B000AF52
:10577000786000BF0C37BD465DF8047B704780B48D
:1057800083B000AF7860396000BF0C37BD465DF86C
:10579000047B704780B483B000AF7860396000BF8D
:1057A0000C37BD465DF8047B704780B483B000AF12
:1057B0007860396000BF0C37BD465DF8047B7047E8
:1057C00080B483B000AF786000BF0C37BD465DF891
:1057D000047B704780B483B000AF78607B6893F837
:1057E000253018460C37BD465DF8047B704780B401
:1057F00083B000AF78607B6893F8243018460C378C
:10580000BD465DF8047B704780B582B000AF78601C
:105810000B467B8013463B807B681B6850331B68BC
:1058200079887A68B2F9042092B28A1A92B210B2D8
:1058300039887A68B2F9062092B28A1A92B212B204
:1058400001467868984700BF0837BD4680BD80B4E0
:1058500083B000AF78607B684FF6FF729A817B68F7
:105860004FF6FF721A847B684FF6FF725A8400BFAE
:105870000C37BD465DF8047B704780B584B000AF3F
:10588000F860B9607A60F868FFF7E1FF7B681A6832
:10589000FB68DA617B68FA681A6000BF1037BD46A2
:1058A00080BD000080B582B000AF7860064A7B689A
:1058B0001A607B680433184600F07EF97B6818464E
:1058C0000837BD4680BD00BF8C01020880B582B09C
:1058D00000AF78607868FFF7E5FF3C21786804F056
:1058E000DFF97B6818460837BD4680BD80B483B0B9
:1058F00000AF786000BF0C37BD465DF8047B704791
:1059000080B483B000AF786000BF0C37BD465DF84F
:10591000047B704780B483B000AF786000BF0C3761
:10592000BD465DF8047B704780B483B000AF7860FB
:1059300000BF0C37BD465DF8047B704780B483B070
:1059400000AF78600B46FB7000BF0C37BD465DF8BA
:10595000047B704780B584B000AFF8607B600B4675
:105960007B8113463B81FB681846FFF733FF0346F4
:10597000002B08D0FB681846FFF739FF0346002BC1
:1059800001D0012300E00023002B02D0FA687B68DD
:105990001A6000BF1037BD4680BD000080B582B0E0
:1059A00000AF7860054A7B681A607B681846FFF78D
:1059B00075FE7B6818460837BD4680BD98E601082D
:1059C00080B582B000AF78607868FFF7E7FF2821E4
:1059D000786804F065F97B6818460837BD4680BDD5
:1059E00080B483B000AF7860044A7B681A607B683B
:1059F00018460C37BD465DF8047B704784E6010805
:105A000080B582B000AF78607868FFF7E9FF0C21BD
:105A1000786804F045F97B6818460837BD4680BDB4
:105A200080B582B000AF7860054A7B681A607B68F9
:105A30001846FFF7D5FF7B6818460837BD4680BD7E
:105A40008CFA010880B582B000AF78607868FFF703
:105A5000E7FF1421786804F023F97B6818460837BB
:105A6000BD4680BD80B582B000AF7860054A7B68D6
:105A70001A607B681846FFF715FF7B6818460837E1
:105A8000BD4680BD50E6010880B582B000AF7860A9
:105A90007868FFF7E7FF4021786804F001F97B6838
:105AA00018460837BD4680BD80B582B000AF78602B
:105AB000104A7B681A607B6803F5BA73184600F0D9
:105AC0002FF97B6803F59473184600F007F97B689B
:105AD0006C33184600F0B4F87B684033184600F089
